{
    "contractName": "MATAR",
    "abi": [
        {
            "inputs": [
                {
                    "internalType": "address",
                    "name": "initialOwner",
                    "type": "address"
                }
            ],
            "stateMutability": "nonpayable",
            "type": "constructor"
        },
        {
            "inputs": [
                {
                    "internalType": "address",
                    "name": "spender",
                    "type": "address"
                },
                {
                    "internalType": "uint256",
                    "name": "allowance",
                    "type": "uint256"
                },
                {
                    "internalType": "uint256",
                    "name": "needed",
                    "type": "uint256"
                }
            ],
            "name": "ERC20InsufficientAllowance",
            "type": "error"
        },
        {
            "inputs": [
                {
                    "internalType": "address",
                    "name": "sender",
                    "type": "address"
                },
                {
                    "internalType": "uint256",
                    "name": "balance",
                    "type": "uint256"
                },
                {
                    "internalType": "uint256",
                    "name": "needed",
                    "type": "uint256"
                }
            ],
            "name": "ERC20InsufficientBalance",
            "type": "error"
        },
        {
            "inputs": [
                {
                    "internalType": "address",
                    "name": "approver",
                    "type": "address"
                }
            ],
            "name": "ERC20InvalidApprover",
            "type": "error"
        },
        {
            "inputs": [
                {
                    "internalType": "address",
                    "name": "receiver",
                    "type": "address"
                }
            ],
            "name": "ERC20InvalidReceiver",
            "type": "error"
        },
        {
            "inputs": [
                {
                    "internalType": "address",
                    "name": "sender",
                    "type": "address"
                }
            ],
            "name": "ERC20InvalidSender",
            "type": "error"
        },
        {
            "inputs": [
                {
                    "internalType": "address",
                    "name": "spender",
                    "type": "address"
                }
            ],
            "name": "ERC20InvalidSpender",
            "type": "error"
        },
        {
            "inputs": [
                {
                    "internalType": "address",
                    "name": "owner",
                    "type": "address"
                }
            ],
            "name": "OwnableInvalidOwner",
            "type": "error"
        },
        {
            "inputs": [
                {
                    "internalType": "address",
                    "name": "account",
                    "type": "address"
                }
            ],
            "name": "OwnableUnauthorizedAccount",
            "type": "error"
        },
        {
            "anonymous": false,
            "inputs": [
                {
                    "indexed": true,
                    "internalType": "address",
                    "name": "owner",
                    "type": "address"
                },
                {
                    "indexed": true,
                    "internalType": "address",
                    "name": "spender",
                    "type": "address"
                },
                {
                    "indexed": false,
                    "internalType": "uint256",
                    "name": "value",
                    "type": "uint256"
                }
            ],
            "name": "Approval",
            "type": "event"
        },
        {
            "anonymous": false,
            "inputs": [
                {
                    "indexed": false,
                    "internalType": "bool",
                    "name": "enabled",
                    "type": "bool"
                }
            ],
            "name": "FeeBurnEnabled",
            "type": "event"
        },
        {
            "anonymous": false,
            "inputs": [
                {
                    "indexed": false,
                    "internalType": "uint256",
                    "name": "tokenAmount",
                    "type": "uint256"
                },
                {
                    "indexed": false,
                    "internalType": "uint256",
                    "name": "bnbAmount",
                    "type": "uint256"
                }
            ],
            "name": "LiquidityAdded",
            "type": "event"
        },
        {
            "anonymous": false,
            "inputs": [
                {
                    "indexed": true,
                    "internalType": "address",
                    "name": "previousOwner",
                    "type": "address"
                },
                {
                    "indexed": true,
                    "internalType": "address",
                    "name": "newOwner",
                    "type": "address"
                }
            ],
            "name": "OwnershipTransferred",
            "type": "event"
        },
        {
            "anonymous": false,
            "inputs": [
                {
                    "indexed": true,
                    "internalType": "address",
                    "name": "pair",
                    "type": "address"
                },
                {
                    "indexed": true,
                    "internalType": "bool",
                    "name": "value",
                    "type": "bool"
                }
            ],
            "name": "SetAutomatedMarketMakerPair",
            "type": "event"
        },
        {
            "anonymous": false,
            "inputs": [
                {
                    "indexed": false,
                    "internalType": "uint256",
                    "name": "buyTax",
                    "type": "uint256"
                },
                {
                    "indexed": false,
                    "internalType": "uint256",
                    "name": "sellTax",
                    "type": "uint256"
                }
            ],
            "name": "TaxUpdate",
            "type": "event"
        },
        {
            "anonymous": false,
            "inputs": [
                {
                    "indexed": false,
                    "internalType": "bool",
                    "name": "enabled",
                    "type": "bool"
                }
            ],
            "name": "TradingEnabled",
            "type": "event"
        },
        {
            "anonymous": false,
            "inputs": [
                {
                    "indexed": true,
                    "internalType": "address",
                    "name": "from",
                    "type": "address"
                },
                {
                    "indexed": true,
                    "internalType": "address",
                    "name": "to",
                    "type": "address"
                },
                {
                    "indexed": false,
                    "internalType": "uint256",
                    "name": "value",
                    "type": "uint256"
                }
            ],
            "name": "Transfer",
            "type": "event"
        },
        {
            "anonymous": false,
            "inputs": [
                {
                    "indexed": false,
                    "internalType": "address",
                    "name": "_address",
                    "type": "address"
                }
            ],
            "name": "WalletWhitelisted",
            "type": "event"
        },
        {
            "anonymous": false,
            "inputs": [
                {
                    "indexed": false,
                    "internalType": "address",
                    "name": "_address",
                    "type": "address"
                }
            ],
            "name": "WhitelistRemoved",
            "type": "event"
        },
        {
            "inputs": [
                {
                    "internalType": "address",
                    "name": "owner",
                    "type": "address"
                },
                {
                    "internalType": "address",
                    "name": "spender",
                    "type": "address"
                }
            ],
            "name": "allowance",
            "outputs": [
                {
                    "internalType": "uint256",
                    "name": "",
                    "type": "uint256"
                }
            ],
            "stateMutability": "view",
            "type": "function"
        },
        {
            "inputs": [
                {
                    "internalType": "address",
                    "name": "spender",
                    "type": "address"
                },
                {
                    "internalType": "uint256",
                    "name": "amount",
                    "type": "uint256"
                }
            ],
            "name": "approve",
            "outputs": [
                {
                    "internalType": "bool",
                    "name": "",
                    "type": "bool"
                }
            ],
            "stateMutability": "nonpayable",
            "type": "function"
        },
        {
            "inputs": [
                {
                    "internalType": "address",
                    "name": "",
                    "type": "address"
                }
            ],
            "name": "automatedMarketMakerPairs",
            "outputs": [
                {
                    "internalType": "bool",
                    "name": "",
                    "type": "bool"
                }
            ],
            "stateMutability": "view",
            "type": "function"
        },
        {
            "inputs": [
                {
                    "internalType": "address",
                    "name": "account",
                    "type": "address"
                }
            ],
            "name": "balanceOf",
            "outputs": [
                {
                    "internalType": "uint256",
                    "name": "",
                    "type": "uint256"
                }
            ],
            "stateMutability": "view",
            "type": "function"
        },
        {
            "inputs": [],
            "name": "buyTax",
            "outputs": [
                {
                    "internalType": "uint256",
                    "name": "",
                    "type": "uint256"
                }
            ],
            "stateMutability": "view",
            "type": "function"
        },
        {
            "inputs": [],
            "name": "deadAddress",
            "outputs": [
                {
                    "internalType": "address",
                    "name": "",
                    "type": "address"
                }
            ],
            "stateMutability": "view",
            "type": "function"
        },
        {
            "inputs": [],
            "name": "decimals",
            "outputs": [
                {
                    "internalType": "uint8",
                    "name": "",
                    "type": "uint8"
                }
            ],
            "stateMutability": "view",
            "type": "function"
        },
        {
            "inputs": [],
            "name": "disableFeeBurn",
            "outputs": [],
            "stateMutability": "nonpayable",
            "type": "function"
        },
        {
            "inputs": [],
            "name": "disableTrading",
            "outputs": [],
            "stateMutability": "nonpayable",
            "type": "function"
        },
        {
            "inputs": [],
            "name": "enableFeeBurn",
            "outputs": [],
            "stateMutability": "nonpayable",
            "type": "function"
        },
        {
            "inputs": [],
            "name": "enableTrading",
            "outputs": [],
            "stateMutability": "nonpayable",
            "type": "function"
        },
        {
            "inputs": [],
            "name": "feeBurnEnabled",
            "outputs": [
                {
                    "internalType": "bool",
                    "name": "",
                    "type": "bool"
                }
            ],
            "stateMutability": "view",
            "type": "function"
        },
        {
            "inputs": [],
            "name": "name",
            "outputs": [
                {
                    "internalType": "string",
                    "name": "",
                    "type": "string"
                }
            ],
            "stateMutability": "view",
            "type": "function"
        },
        {
            "inputs": [],
            "name": "owner",
            "outputs": [
                {
                    "internalType": "address",
                    "name": "",
                    "type": "address"
                }
            ],
            "stateMutability": "view",
            "type": "function"
        },
        {
            "inputs": [],
            "name": "pancakeRouter",
            "outputs": [
                {
                    "internalType": "contract IPancakeRouter02",
                    "name": "",
                    "type": "address"
                }
            ],
            "stateMutability": "view",
            "type": "function"
        },
        {
            "inputs": [
                {
                    "internalType": "address",
                    "name": "_address",
                    "type": "address"
                }
            ],
            "name": "removeWalletFromWhiteList",
            "outputs": [],
            "stateMutability": "nonpayable",
            "type": "function"
        },
        {
            "inputs": [],
            "name": "renounceOwnership",
            "outputs": [],
            "stateMutability": "nonpayable",
            "type": "function"
        },
        {
            "inputs": [],
            "name": "sellTax",
            "outputs": [
                {
                    "internalType": "uint256",
                    "name": "",
                    "type": "uint256"
                }
            ],
            "stateMutability": "view",
            "type": "function"
        },
        {
            "inputs": [
                {
                    "internalType": "address",
                    "name": "pair",
                    "type": "address"
                },
                {
                    "internalType": "bool",
                    "name": "value",
                    "type": "bool"
                }
            ],
            "name": "setAutomatedMarketMakerPair",
            "outputs": [],
            "stateMutability": "nonpayable",
            "type": "function"
        },
        {
            "inputs": [],
            "name": "symbol",
            "outputs": [
                {
                    "internalType": "string",
                    "name": "",
                    "type": "string"
                }
            ],
            "stateMutability": "view",
            "type": "function"
        },
        {
            "inputs": [],
            "name": "taxWallet",
            "outputs": [
                {
                    "internalType": "address",
                    "name": "",
                    "type": "address"
                }
            ],
            "stateMutability": "view",
            "type": "function"
        },
        {
            "inputs": [],
            "name": "totalSupply",
            "outputs": [
                {
                    "internalType": "uint256",
                    "name": "",
                    "type": "uint256"
                }
            ],
            "stateMutability": "view",
            "type": "function"
        },
        {
            "inputs": [],
            "name": "tradingEnabled",
            "outputs": [
                {
                    "internalType": "bool",
                    "name": "",
                    "type": "bool"
                }
            ],
            "stateMutability": "view",
            "type": "function"
        },
        {
            "inputs": [
                {
                    "internalType": "address",
                    "name": "recipient",
                    "type": "address"
                },
                {
                    "internalType": "uint256",
                    "name": "amount",
                    "type": "uint256"
                }
            ],
            "name": "transfer",
            "outputs": [
                {
                    "internalType": "bool",
                    "name": "",
                    "type": "bool"
                }
            ],
            "stateMutability": "nonpayable",
            "type": "function"
        },
        {
            "inputs": [
                {
                    "internalType": "address",
                    "name": "sender",
                    "type": "address"
                },
                {
                    "internalType": "address",
                    "name": "recipient",
                    "type": "address"
                },
                {
                    "internalType": "uint256",
                    "name": "amount",
                    "type": "uint256"
                }
            ],
            "name": "transferFrom",
            "outputs": [
                {
                    "internalType": "bool",
                    "name": "",
                    "type": "bool"
                }
            ],
            "stateMutability": "nonpayable",
            "type": "function"
        },
        {
            "inputs": [
                {
                    "internalType": "address",
                    "name": "newOwner",
                    "type": "address"
                }
            ],
            "name": "transferOwnership",
            "outputs": [],
            "stateMutability": "nonpayable",
            "type": "function"
        },
        {
            "inputs": [
                {
                    "internalType": "uint256",
                    "name": "_buyTax",
                    "type": "uint256"
                },
                {
                    "internalType": "uint256",
                    "name": "_sellTax",
                    "type": "uint256"
                }
            ],
            "name": "updateTax",
            "outputs": [],
            "stateMutability": "nonpayable",
            "type": "function"
        },
        {
            "inputs": [
                {
                    "internalType": "address",
                    "name": "_address",
                    "type": "address"
                }
            ],
            "name": "whiteListWallet",
            "outputs": [],
            "stateMutability": "nonpayable",
            "type": "function"
        },
        {
            "inputs": [
                {
                    "internalType": "address",
                    "name": "_tokenAddress",
                    "type": "address"
                }
            ],
            "name": "withdrawBEP20",
            "outputs": [],
            "stateMutability": "nonpayable",
            "type": "function"
        },
        {
            "inputs": [],
            "name": "withdrawBNB",
            "outputs": [],
            "stateMutability": "nonpayable",
            "type": "function"
        },
        {
            "stateMutability": "payable",
            "type": "receive"
        }
    ],
    "bytecode": "608060405260026008556004600955600a80546001600160b01b03191663dead000017905534801562000030575f80fd5b5060405162001d6438038062001d64833981016040819052620000539162000468565b806001600160a01b0381166200008357604051631e4fbdf760e01b81525f60048201526024015b60405180910390fd5b6200008e81620002fc565b5060408051808201909152600581526426a0aa20a960d91b6020820152600690620000ba908262000535565b5060408051808201909152600581526426a0aa20a960d91b6020820152600790620000e6908262000535565b50620000f56012600a62000710565b62000105906301406f4062000720565b600555600b8054306001600160a01b031991821617909155600c805473d99d1c33f9fc3444f8101754abc46c52416550d19216821790556040805163c45a015560e01b81529051829163c45a01559160048083019260209291908290030181865afa15801562000177573d5f803e3d5ffd5b505050506040513d601f19601f820116820180604052508101906200019d919062000468565b6001600160a01b031663c9c6539630836001600160a01b031663ad5c46486040518163ffffffff1660e01b8152600401602060405180830381865afa158015620001e9573d5f803e3d5ffd5b505050506040513d601f19601f820116820180604052508101906200020f919062000468565b6040516001600160e01b031960e085901b1681526001600160a01b039283166004820152911660248201526044016020604051808303815f875af11580156200025a573d5f803e3d5ffd5b505050506040513d601f19601f8201168201806040525081019062000280919062000468565b600d80546001600160a01b0319166001600160a01b03929092169182179055620002ac9060016200034b565b6001600160a01b0382165f908152600360205260408082208054600160ff1991821681179092553084529190922080549091169091179055600554620002f49083906200039e565b505062000750565b5f80546001600160a01b038381166001600160a01b0319831681178455604051919092169283917f8be0079c531659141344cd1fd0a4f28419497f9722a3daafe3b4186f6b6457e09190a35050565b6001600160a01b0382165f81815260046020526040808220805460ff191685151590811790915590519092917fffa9187bf1f18bf477bd0ea1bcbb64e93b6a98132473929edfce215cd9b16fab91a35050565b6001600160a01b038216620003f65760405162461bcd60e51b815260206004820152601f60248201527f45524332303a206d696e7420746f20746865207a65726f20616464726573730060448201526064016200007a565b6001600160a01b0382165f90815260016020526040812080548392906200041f9084906200073a565b90915550506040518181526001600160a01b038316905f907fddf252ad1be2c89b69c2b068fc378daa952ba7f163c4a11628f55a4df523b3ef9060200160405180910390a35050565b5f6020828403121562000479575f80fd5b81516001600160a01b038116811462000490575f80fd5b9392505050565b634e487b7160e01b5f52604160045260245ffd5b600181811c90821680620004c057607f821691505b602082108103620004df57634e487b7160e01b5f52602260045260245ffd5b50919050565b601f8211156200053057805f5260205f20601f840160051c810160208510156200050c5750805b601f840160051c820191505b818110156200052d575f815560010162000518565b50505b505050565b81516001600160401b0381111562000551576200055162000497565b6200056981620005628454620004ab565b84620004e5565b602080601f8311600181146200059f575f8415620005875750858301515b5f19600386901b1c1916600185901b178555620005f9565b5f85815260208120601f198616915b82811015620005cf57888601518255948401946001909101908401620005ae565b5085821015620005ed57878501515f19600388901b60f8161c191681555b505060018460011b0185555b505050505050565b634e487b7160e01b5f52601160045260245ffd5b600181815b808511156200065557815f190482111562000639576200063962000601565b808516156200064757918102915b93841c93908002906200061a565b509250929050565b5f826200066d575060016200070a565b816200067b57505f6200070a565b81600181146200069457600281146200069f57620006bf565b60019150506200070a565b60ff841115620006b357620006b362000601565b50506001821b6200070a565b5060208310610133831016604e8410600b8410161715620006e4575081810a6200070a565b620006f0838362000615565b805f190482111562000706576200070662000601565b0290505b92915050565b5f6200049060ff8416836200065d565b80820281158282048414176200070a576200070a62000601565b808201808211156200070a576200070a62000601565b611606806200075e5f395ff3fe6080604052600436106101c8575f3560e01c80636b3c1aaa116100f25780639a7a23d611610092578063cc1776d311610062578063cc1776d3146104f2578063dd62ed3e14610507578063ee1ccba41461054b578063f2fde38b1461056a575f80fd5b80639a7a23d614610467578063a9059cbb14610486578063b62496f5146104a5578063c21ebd07146104d3575f80fd5b8063884e491b116100cd578063884e491b146104045780638a8c523c146104235780638da5cb5b1461043757806395d89b4114610453575f80fd5b80636b3c1aaa146103a857806370a08231146103bc578063715018a6146103f0575f80fd5b806323b872dd11610168578063313ce56711610138578063313ce567146103415780634ada218b1461035c5780634f7041a5146103755780634fba14e91461038a575f80fd5b806323b872dd146102a757806327c8f835146102c65780632dc0562d146103035780632f37aa6d14610322575f80fd5b806317700f01116101a357806317700f011461024d57806318160ddd146102615780631d111d131461027f57806320fea3c714610293575f80fd5b8063047e4086146101d357806306fdde03146101f4578063095ea7b31461021e575f80fd5b366101cf57005b5f80fd5b3480156101de575f80fd5b506101f26101ed366004611396565b610589565b005b3480156101ff575f80fd5b50610208610790565b60405161021591906113b6565b60405180910390f35b348015610229575f80fd5b5061023d610238366004611402565b610820565b6040519015158152602001610215565b348015610258575f80fd5b506101f2610838565b34801561026c575f80fd5b506005545b604051908152602001610215565b34801561028a575f80fd5b506101f2610880565b34801561029e575f80fd5b506101f2610908565b3480156102b2575f80fd5b5061023d6102c136600461142a565b61094b565b3480156102d1575f80fd5b50600a546102eb906201000090046001600160a01b031681565b6040516001600160a01b039091168152602001610215565b34801561030e575f80fd5b50600b546102eb906001600160a01b031681565b34801561032d575f80fd5b506101f261033c366004611463565b61096c565b34801561034c575f80fd5b5060405160128152602001610215565b348015610367575f80fd5b50600a5461023d9060ff1681565b348015610380575f80fd5b5061027160085481565b348015610395575f80fd5b50600a5461023d90610100900460ff1681565b3480156103b3575f80fd5b506101f26109bb565b3480156103c7575f80fd5b506102716103d6366004611396565b6001600160a01b03165f9081526001602052604090205490565b3480156103fb575f80fd5b506101f2610a03565b34801561040f575f80fd5b506101f261041e366004611396565b610a16565b34801561042e575f80fd5b506101f2610ae1565b348015610442575f80fd5b505f546001600160a01b03166102eb565b34801561045e575f80fd5b50610208610b29565b348015610472575f80fd5b506101f2610481366004611490565b610b38565b348015610491575f80fd5b5061023d6104a0366004611402565b610bd8565b3480156104b0575f80fd5b5061023d6104bf366004611396565b60046020525f908152604090205460ff1681565b3480156104de575f80fd5b50600c546102eb906001600160a01b031681565b3480156104fd575f80fd5b5061027160095481565b348015610512575f80fd5b506102716105213660046114c5565b6001600160a01b039182165f90815260026020908152604080832093909416825291909152205490565b348015610556575f80fd5b506101f2610565366004611396565b610be4565b348015610575575f80fd5b506101f2610584366004611396565b610ca7565b610591610ce1565b306001600160a01b038216036105ee5760405162461bcd60e51b815260206004820152601c60248201527f43616e6e6f74207769746864726177204d4154415220746f6b656e730000000060448201526064015b60405180910390fd5b6040516370a0823160e01b81523060048201525f906001600160a01b038316906370a0823190602401602060405180830381865afa158015610632573d5f803e3d5ffd5b505050506040513d601f19601f8201168201806040525081019061065691906114f6565b1161069a5760405162461bcd60e51b8152602060048201526014602482015273496e73756666696369656e742062616c616e636560601b60448201526064016105e5565b806001600160a01b031663a9059cbb6106ba5f546001600160a01b031690565b6040516370a0823160e01b81523060048201526001600160a01b038516906370a0823190602401602060405180830381865afa1580156106fc573d5f803e3d5ffd5b505050506040513d601f19601f8201168201806040525081019061072091906114f6565b6040516001600160e01b031960e085901b1681526001600160a01b03909216600483015260248201526044016020604051808303815f875af1158015610768573d5f803e3d5ffd5b505050506040513d601f19601f8201168201806040525081019061078c919061150d565b5050565b60606006805461079f90611528565b80601f01602080910402602001604051908101604052809291908181526020018280546107cb90611528565b80156108165780601f106107ed57610100808354040283529160200191610816565b820191905f5260205f20905b8154815290600101906020018083116107f957829003601f168201915b5050505050905090565b5f61082e3384846001610d0d565b5060015b92915050565b610840610ce1565b600a805460ff191690556040515f81527fbeda7dca7bc1b3e80b871f4818129ec73b771581f803d553aeb3484098e5f65a906020015b60405180910390a1565b610888610ce1565b5f47116108ce5760405162461bcd60e51b8152602060048201526014602482015273496e73756666696369656e742062616c616e636560601b60448201526064016105e5565b5f80546040516001600160a01b03909116914780156108fc02929091818181858888f19350505050158015610905573d5f803e3d5ffd5b50565b610910610ce1565b600a805461ff00191690556040515f81527f4b0fd5fcc6a1e942508bec1deccb889b5b008ee7b9157fc054a4f274a229698490602001610876565b5f610957843384610de0565b610962848484610e55565b5060019392505050565b610974610ce1565b6008829055600981905560408051838152602081018390527f78844d280b6003bd81c782e05aa6190cf1a27f33cc872765ef8269d5936f1361910160405180910390a15050565b6109c3610ce1565b600a805461ff001916610100179055604051600181527f4b0fd5fcc6a1e942508bec1deccb889b5b008ee7b9157fc054a4f274a229698490602001610876565b610a0b610ce1565b610a145f6112d9565b565b610a1e610ce1565b6001600160a01b0381165f9081526003602052604090205460ff161515600114610a8a5760405162461bcd60e51b815260206004820152601a60248201527f41646472657373206973206e6f742077686974656c697374656400000000000060448201526064016105e5565b6001600160a01b0381165f81815260036020908152604091829020805460ff1916905590519182527fde8cf212af7ce38b2840785a2768d97ff2dbf3c21b516961cec0061e134c2a1e91015b60405180910390a150565b610ae9610ce1565b600a805460ff191660019081179091556040519081527fbeda7dca7bc1b3e80b871f4818129ec73b771581f803d553aeb3484098e5f65a90602001610876565b60606007805461079f90611528565b610b40610ce1565b600d546001600160a01b0390811690831603610bce5760405162461bcd60e51b815260206004820152604160248201527f5468652050616e63616b6520706169722063616e6e6f742062652072656d6f7660448201527f65642066726f6d206175746f6d617465644d61726b65744d616b6572506169726064820152607360f81b608482015260a4016105e5565b61078c8282611328565b5f61082e338484610e55565b610bec610ce1565b6001600160a01b0381165f9081526003602052604090205460ff1615610c545760405162461bcd60e51b815260206004820152601e60248201527f4164647265737320697320616c72656164792077686974656c6973746564000060448201526064016105e5565b6001600160a01b0381165f81815260036020908152604091829020805460ff1916600117905590519182527f12c94d2725e3b811140fad6a73350adbd38646149c9a9a62ffc1018bec2ec97c9101610ad6565b610caf610ce1565b6001600160a01b038116610cd857604051631e4fbdf760e01b81525f60048201526024016105e5565b610905816112d9565b5f546001600160a01b03163314610a145760405163118cdaa760e01b81523360048201526024016105e5565b6001600160a01b038416610d365760405163e602df0560e01b81525f60048201526024016105e5565b6001600160a01b038316610d5f57604051634a1406b160e11b81525f60048201526024016105e5565b6001600160a01b038085165f9081526002602090815260408083209387168352929052208290558015610dda57826001600160a01b0316846001600160a01b03167f8c5be1e5ebec7d5bd14f71427d1e84f3dd0314c0f7b2291e5b200ac8c7c3b92584604051610dd191815260200190565b60405180910390a35b50505050565b6001600160a01b038381165f908152600260209081526040808320938616835292905220545f198114610dda5781811015610e4757604051637dc7a0d960e11b81526001600160a01b038416600482015260248101829052604481018390526064016105e5565b610dda84848484035f610d0d565b6001600160a01b038316610eb95760405162461bcd60e51b815260206004820152602560248201527f45524332303a207472616e736665722066726f6d20746865207a65726f206164604482015264647265737360d81b60648201526084016105e5565b6001600160a01b038216610f1b5760405162461bcd60e51b815260206004820152602360248201527f45524332303a207472616e7366657220746f20746865207a65726f206164647260448201526265737360e81b60648201526084016105e5565b5f8111610f7c5760405162461bcd60e51b815260206004820152602960248201527f5472616e7366657220616d6f756e74206d7573742062652067726561746572206044820152687468616e207a65726f60b81b60648201526084016105e5565b6001600160a01b0383165f9081526003602052604081205460ff16158015610fbc57506001600160a01b0383165f9081526003602052604090205460ff16155b1561102957600a5460ff1661100c5760405162461bcd60e51b8152602060048201526016602482015275151c98591a5b99c81a5cc81b9bdd08195b98589b195960521b60448201526064016105e5565b60646008548361101c9190611574565b611026919061158b565b90505b6001600160a01b0384165f9081526003602052604090205460ff168061106657506001600160a01b0383165f9081526003602052604090205460ff165b1561106e57505f5b600d546001600160a01b03848116911614801561109457506001600160a01b0384163014155b80156110b857506001600160a01b0384165f9081526003602052604090205460ff16155b80156110dc57506001600160a01b0383165f9081526003602052604090205460ff16155b156110fe576064600954836110f19190611574565b6110fb919061158b565b90505b6001600160a01b0384165f90815260016020526040812080548492906111259084906115aa565b90915550611135905081836115aa565b6001600160a01b0384165f908152600160205260408120805490919061115c9084906115bd565b90915550506001600160a01b038084169085167fddf252ad1be2c89b69c2b068fc378daa952ba7f163c4a11628f55a4df523b3ef61119a84866115aa565b60405190815260200160405180910390a35f811180156111c15750600a54610100900460ff165b1561124d57600a546201000090046001600160a01b03165f90815260016020526040812080548392906111f59084906115bd565b9091555050600a546040516001600160a01b03620100009092048216918616907fddf252ad1be2c89b69c2b068fc378daa952ba7f163c4a11628f55a4df523b3ef906112449085815260200190565b60405180910390a35b5f811180156112645750600a54610100900460ff16155b15610dda57600b546001600160a01b03165f90815260016020526040812080548392906112929084906115bd565b9091555050600b546040518281526001600160a01b03918216918616907fddf252ad1be2c89b69c2b068fc378daa952ba7f163c4a11628f55a4df523b3ef90602001610dd1565b5f80546001600160a01b038381166001600160a01b0319831681178455604051919092169283917f8be0079c531659141344cd1fd0a4f28419497f9722a3daafe3b4186f6b6457e09190a35050565b6001600160a01b0382165f81815260046020526040808220805460ff191685151590811790915590519092917fffa9187bf1f18bf477bd0ea1bcbb64e93b6a98132473929edfce215cd9b16fab91a35050565b80356001600160a01b0381168114611391575f80fd5b919050565b5f602082840312156113a6575f80fd5b6113af8261137b565b9392505050565b5f602080835283518060208501525f5b818110156113e2578581018301518582016040015282016113c6565b505f604082860101526040601f19601f8301168501019250505092915050565b5f8060408385031215611413575f80fd5b61141c8361137b565b946020939093013593505050565b5f805f6060848603121561143c575f80fd5b6114458461137b565b92506114536020850161137b565b9150604084013590509250925092565b5f8060408385031215611474575f80fd5b50508035926020909101359150565b8015158114610905575f80fd5b5f80604083850312156114a1575f80fd5b6114aa8361137b565b915060208301356114ba81611483565b809150509250929050565b5f80604083850312156114d6575f80fd5b6114df8361137b565b91506114ed6020840161137b565b90509250929050565b5f60208284031215611506575f80fd5b5051919050565b5f6020828403121561151d575f80fd5b81516113af81611483565b600181811c9082168061153c57607f821691505b60208210810361155a57634e487b7160e01b5f52602260045260245ffd5b50919050565b634e487b7160e01b5f52601160045260245ffd5b808202811582820484141761083257610832611560565b5f826115a557634e487b7160e01b5f52601260045260245ffd5b500490565b8181038181111561083257610832611560565b808201808211156108325761083261156056fea26469706673582212201e81a9e1c16d014c8ee6443c1ebf517a0329e0ea1c18c4cc60ff51d6738aa04364736f6c63430008160033",
    "sourcePath": "e:/GitHub/token-matar/contracts/MATAR.sol",
    "compiler": {
        "name": "solc",
        "version": "0.8.22+commit.4fc1097e"
    },
    "functionHashes": {
        "allowance(address,address)": "dd62ed3e",
        "approve(address,uint256)": "095ea7b3",
        "automatedMarketMakerPairs(address)": "b62496f5",
        "balanceOf(address)": "70a08231",
        "buyTax()": "4f7041a5",
        "deadAddress()": "27c8f835",
        "decimals()": "313ce567",
        "disableFeeBurn()": "20fea3c7",
        "disableTrading()": "17700f01",
        "enableFeeBurn()": "6b3c1aaa",
        "enableTrading()": "8a8c523c",
        "feeBurnEnabled()": "4fba14e9",
        "name()": "06fdde03",
        "owner()": "8da5cb5b",
        "pancakeRouter()": "c21ebd07",
        "removeWalletFromWhiteList(address)": "884e491b",
        "renounceOwnership()": "715018a6",
        "sellTax()": "cc1776d3",
        "setAutomatedMarketMakerPair(address,bool)": "9a7a23d6",
        "symbol()": "95d89b41",
        "taxWallet()": "2dc0562d",
        "totalSupply()": "18160ddd",
        "tradingEnabled()": "4ada218b",
        "transfer(address,uint256)": "a9059cbb",
        "transferFrom(address,address,uint256)": "23b872dd",
        "transferOwnership(address)": "f2fde38b",
        "updateTax(uint256,uint256)": "2f37aa6d",
        "whiteListWallet(address)": "ee1ccba4",
        "withdrawBEP20(address)": "047e4086",
        "withdrawBNB()": "1d111d13"
    },
    "gasEstimates": {
        "creation": {
            "codeDepositCost": "1127600",
            "executionCost": "infinite",
            "totalCost": "infinite"
        },
        "external": {
            "allowance(address,address)": "infinite",
            "approve(address,uint256)": "24757",
            "automatedMarketMakerPairs(address)": "2617",
            "balanceOf(address)": "2602",
            "buyTax()": "2383",
            "deadAddress()": "2415",
            "decimals()": "221",
            "disableFeeBurn()": "27704",
            "disableTrading()": "27627",
            "enableFeeBurn()": "27645",
            "enableTrading()": "27675",
            "feeBurnEnabled()": "2431",
            "name()": "infinite",
            "owner()": "2418",
            "pancakeRouter()": "2447",
            "removeWalletFromWhiteList(address)": "30102",
            "renounceOwnership()": "infinite",
            "sellTax()": "2338",
            "setAutomatedMarketMakerPair(address,bool)": "30637",
            "symbol()": "infinite",
            "taxWallet()": "2426",
            "totalSupply()": "2348",
            "tradingEnabled()": "2376",
            "transfer(address,uint256)": "infinite",
            "transferFrom(address,address,uint256)": "infinite",
            "transferOwnership(address)": "28439",
            "updateTax(uint256,uint256)": "48073",
            "whiteListWallet(address)": "30153",
            "withdrawBEP20(address)": "infinite",
            "withdrawBNB()": "infinite"
        },
        "internal": {
            "_addLiquidity(uint256,uint256)": "infinite",
            "_approve(address,address,uint256,bool)": "infinite",
            "_burn(address,uint256)": "infinite",
            "_burnFrom(address,uint256)": "infinite",
            "_mint(address,uint256)": "infinite",
            "_setAutomatedMarketMakerPair(address,bool)": "25871",
            "_spendAllowance(address,address,uint256)": "infinite",
            "_transfer(address,address,uint256)": "infinite"
        }
    }
}