{
    "contractName": "MATAR",
    "abi": [
        {
            "inputs": [
                {
                    "internalType": "address",
                    "name": "initialOwner",
                    "type": "address"
                }
            ],
            "stateMutability": "nonpayable",
            "type": "constructor"
        },
        {
            "inputs": [
                {
                    "internalType": "address",
                    "name": "spender",
                    "type": "address"
                },
                {
                    "internalType": "uint256",
                    "name": "allowance",
                    "type": "uint256"
                },
                {
                    "internalType": "uint256",
                    "name": "needed",
                    "type": "uint256"
                }
            ],
            "name": "ERC20InsufficientAllowance",
            "type": "error"
        },
        {
            "inputs": [
                {
                    "internalType": "address",
                    "name": "sender",
                    "type": "address"
                },
                {
                    "internalType": "uint256",
                    "name": "balance",
                    "type": "uint256"
                },
                {
                    "internalType": "uint256",
                    "name": "needed",
                    "type": "uint256"
                }
            ],
            "name": "ERC20InsufficientBalance",
            "type": "error"
        },
        {
            "inputs": [
                {
                    "internalType": "address",
                    "name": "approver",
                    "type": "address"
                }
            ],
            "name": "ERC20InvalidApprover",
            "type": "error"
        },
        {
            "inputs": [
                {
                    "internalType": "address",
                    "name": "receiver",
                    "type": "address"
                }
            ],
            "name": "ERC20InvalidReceiver",
            "type": "error"
        },
        {
            "inputs": [
                {
                    "internalType": "address",
                    "name": "sender",
                    "type": "address"
                }
            ],
            "name": "ERC20InvalidSender",
            "type": "error"
        },
        {
            "inputs": [
                {
                    "internalType": "address",
                    "name": "spender",
                    "type": "address"
                }
            ],
            "name": "ERC20InvalidSpender",
            "type": "error"
        },
        {
            "inputs": [
                {
                    "internalType": "address",
                    "name": "owner",
                    "type": "address"
                }
            ],
            "name": "OwnableInvalidOwner",
            "type": "error"
        },
        {
            "inputs": [
                {
                    "internalType": "address",
                    "name": "account",
                    "type": "address"
                }
            ],
            "name": "OwnableUnauthorizedAccount",
            "type": "error"
        },
        {
            "anonymous": false,
            "inputs": [
                {
                    "indexed": true,
                    "internalType": "address",
                    "name": "owner",
                    "type": "address"
                },
                {
                    "indexed": true,
                    "internalType": "address",
                    "name": "spender",
                    "type": "address"
                },
                {
                    "indexed": false,
                    "internalType": "uint256",
                    "name": "value",
                    "type": "uint256"
                }
            ],
            "name": "Approval",
            "type": "event"
        },
        {
            "anonymous": false,
            "inputs": [
                {
                    "indexed": false,
                    "internalType": "bool",
                    "name": "enabled",
                    "type": "bool"
                }
            ],
            "name": "FeeBurnEnabled",
            "type": "event"
        },
        {
            "anonymous": false,
            "inputs": [
                {
                    "indexed": true,
                    "internalType": "address",
                    "name": "previousOwner",
                    "type": "address"
                },
                {
                    "indexed": true,
                    "internalType": "address",
                    "name": "newOwner",
                    "type": "address"
                }
            ],
            "name": "OwnershipTransferred",
            "type": "event"
        },
        {
            "anonymous": false,
            "inputs": [
                {
                    "indexed": false,
                    "internalType": "uint256",
                    "name": "buyTax",
                    "type": "uint256"
                },
                {
                    "indexed": false,
                    "internalType": "uint256",
                    "name": "sellTax",
                    "type": "uint256"
                }
            ],
            "name": "TaxUpdate",
            "type": "event"
        },
        {
            "anonymous": false,
            "inputs": [
                {
                    "indexed": false,
                    "internalType": "bool",
                    "name": "enabled",
                    "type": "bool"
                }
            ],
            "name": "TradingEnabled",
            "type": "event"
        },
        {
            "anonymous": false,
            "inputs": [
                {
                    "indexed": true,
                    "internalType": "address",
                    "name": "from",
                    "type": "address"
                },
                {
                    "indexed": true,
                    "internalType": "address",
                    "name": "to",
                    "type": "address"
                },
                {
                    "indexed": false,
                    "internalType": "uint256",
                    "name": "value",
                    "type": "uint256"
                }
            ],
            "name": "Transfer",
            "type": "event"
        },
        {
            "anonymous": false,
            "inputs": [
                {
                    "indexed": false,
                    "internalType": "address",
                    "name": "_address",
                    "type": "address"
                }
            ],
            "name": "WalletWhitelisted",
            "type": "event"
        },
        {
            "anonymous": false,
            "inputs": [
                {
                    "indexed": false,
                    "internalType": "address",
                    "name": "_address",
                    "type": "address"
                }
            ],
            "name": "WhitelistRemoved",
            "type": "event"
        },
        {
            "inputs": [
                {
                    "internalType": "address",
                    "name": "owner",
                    "type": "address"
                },
                {
                    "internalType": "address",
                    "name": "spender",
                    "type": "address"
                }
            ],
            "name": "allowance",
            "outputs": [
                {
                    "internalType": "uint256",
                    "name": "",
                    "type": "uint256"
                }
            ],
            "stateMutability": "view",
            "type": "function"
        },
        {
            "inputs": [
                {
                    "internalType": "address",
                    "name": "spender",
                    "type": "address"
                },
                {
                    "internalType": "uint256",
                    "name": "amount",
                    "type": "uint256"
                }
            ],
            "name": "approve",
            "outputs": [
                {
                    "internalType": "bool",
                    "name": "",
                    "type": "bool"
                }
            ],
            "stateMutability": "nonpayable",
            "type": "function"
        },
        {
            "inputs": [
                {
                    "internalType": "address",
                    "name": "account",
                    "type": "address"
                }
            ],
            "name": "balanceOf",
            "outputs": [
                {
                    "internalType": "uint256",
                    "name": "",
                    "type": "uint256"
                }
            ],
            "stateMutability": "view",
            "type": "function"
        },
        {
            "inputs": [],
            "name": "buyTax",
            "outputs": [
                {
                    "internalType": "uint256",
                    "name": "",
                    "type": "uint256"
                }
            ],
            "stateMutability": "view",
            "type": "function"
        },
        {
            "inputs": [],
            "name": "deadAddress",
            "outputs": [
                {
                    "internalType": "address",
                    "name": "",
                    "type": "address"
                }
            ],
            "stateMutability": "view",
            "type": "function"
        },
        {
            "inputs": [],
            "name": "decimals",
            "outputs": [
                {
                    "internalType": "uint8",
                    "name": "",
                    "type": "uint8"
                }
            ],
            "stateMutability": "view",
            "type": "function"
        },
        {
            "inputs": [],
            "name": "disableFeeBurn",
            "outputs": [],
            "stateMutability": "nonpayable",
            "type": "function"
        },
        {
            "inputs": [],
            "name": "enableFeeBurn",
            "outputs": [],
            "stateMutability": "nonpayable",
            "type": "function"
        },
        {
            "inputs": [],
            "name": "enableTrading",
            "outputs": [],
            "stateMutability": "nonpayable",
            "type": "function"
        },
        {
            "inputs": [],
            "name": "feeBurnEnabled",
            "outputs": [
                {
                    "internalType": "bool",
                    "name": "",
                    "type": "bool"
                }
            ],
            "stateMutability": "view",
            "type": "function"
        },
        {
            "inputs": [],
            "name": "name",
            "outputs": [
                {
                    "internalType": "string",
                    "name": "",
                    "type": "string"
                }
            ],
            "stateMutability": "view",
            "type": "function"
        },
        {
            "inputs": [],
            "name": "owner",
            "outputs": [
                {
                    "internalType": "address",
                    "name": "",
                    "type": "address"
                }
            ],
            "stateMutability": "view",
            "type": "function"
        },
        {
            "inputs": [],
            "name": "pancakeRouter",
            "outputs": [
                {
                    "internalType": "contract IPancakeRouter02",
                    "name": "",
                    "type": "address"
                }
            ],
            "stateMutability": "view",
            "type": "function"
        },
        {
            "inputs": [
                {
                    "internalType": "address",
                    "name": "_address",
                    "type": "address"
                }
            ],
            "name": "removeWalletFromWhiteList",
            "outputs": [],
            "stateMutability": "nonpayable",
            "type": "function"
        },
        {
            "inputs": [],
            "name": "renounceOwnership",
            "outputs": [],
            "stateMutability": "nonpayable",
            "type": "function"
        },
        {
            "inputs": [],
            "name": "sellTax",
            "outputs": [
                {
                    "internalType": "uint256",
                    "name": "",
                    "type": "uint256"
                }
            ],
            "stateMutability": "view",
            "type": "function"
        },
        {
            "inputs": [],
            "name": "symbol",
            "outputs": [
                {
                    "internalType": "string",
                    "name": "",
                    "type": "string"
                }
            ],
            "stateMutability": "view",
            "type": "function"
        },
        {
            "inputs": [],
            "name": "totalSupply",
            "outputs": [
                {
                    "internalType": "uint256",
                    "name": "",
                    "type": "uint256"
                }
            ],
            "stateMutability": "view",
            "type": "function"
        },
        {
            "inputs": [],
            "name": "tradingEnabled",
            "outputs": [
                {
                    "internalType": "bool",
                    "name": "",
                    "type": "bool"
                }
            ],
            "stateMutability": "view",
            "type": "function"
        },
        {
            "inputs": [
                {
                    "internalType": "address",
                    "name": "recipient",
                    "type": "address"
                },
                {
                    "internalType": "uint256",
                    "name": "amount",
                    "type": "uint256"
                }
            ],
            "name": "transfer",
            "outputs": [
                {
                    "internalType": "bool",
                    "name": "",
                    "type": "bool"
                }
            ],
            "stateMutability": "nonpayable",
            "type": "function"
        },
        {
            "inputs": [
                {
                    "internalType": "address",
                    "name": "sender",
                    "type": "address"
                },
                {
                    "internalType": "address",
                    "name": "recipient",
                    "type": "address"
                },
                {
                    "internalType": "uint256",
                    "name": "amount",
                    "type": "uint256"
                }
            ],
            "name": "transferFrom",
            "outputs": [
                {
                    "internalType": "bool",
                    "name": "",
                    "type": "bool"
                }
            ],
            "stateMutability": "nonpayable",
            "type": "function"
        },
        {
            "inputs": [
                {
                    "internalType": "address",
                    "name": "newOwner",
                    "type": "address"
                }
            ],
            "name": "transferOwnership",
            "outputs": [],
            "stateMutability": "nonpayable",
            "type": "function"
        },
        {
            "inputs": [
                {
                    "internalType": "uint256",
                    "name": "_buyTax",
                    "type": "uint256"
                },
                {
                    "internalType": "uint256",
                    "name": "_sellTax",
                    "type": "uint256"
                }
            ],
            "name": "updateTax",
            "outputs": [],
            "stateMutability": "nonpayable",
            "type": "function"
        },
        {
            "inputs": [
                {
                    "internalType": "address",
                    "name": "_address",
                    "type": "address"
                }
            ],
            "name": "whiteListWallet",
            "outputs": [],
            "stateMutability": "nonpayable",
            "type": "function"
        },
        {
            "inputs": [
                {
                    "internalType": "address",
                    "name": "_tokenAddress",
                    "type": "address"
                }
            ],
            "name": "withdrawBEP20",
            "outputs": [],
            "stateMutability": "nonpayable",
            "type": "function"
        },
        {
            "inputs": [],
            "name": "withdrawBNB",
            "outputs": [],
            "stateMutability": "nonpayable",
            "type": "function"
        },
        {
            "stateMutability": "payable",
            "type": "receive"
        }
    ],
    "bytecode": "608060405260026007556004600855600980546001600160b01b03191663dead000017905534801562000030575f80fd5b5060405162001a2038038062001a2083398101604081905262000053916200040b565b806001600160a01b0381166200008357604051631e4fbdf760e01b81525f60048201526024015b60405180910390fd5b6200008e81620002da565b506040805180820190915260058082526426a0aa20a960d91b602083015290620000b99082620004d8565b5060408051808201909152600581526426a0aa20a960d91b6020820152600690620000e59082620004d8565b50620000f46012600a620006b3565b62000104906301406f40620006c3565b6004908155600a80546001600160a01b0319167310ed43c718714eb63d5aa57b78b54704e256024e9081179091556040805163c45a015560e01b815290519192839263c45a01559280830192602092918290030181865afa1580156200016c573d5f803e3d5ffd5b505050506040513d601f19601f820116820180604052508101906200019291906200040b565b6001600160a01b031663c9c6539630836001600160a01b031663ad5c46486040518163ffffffff1660e01b8152600401602060405180830381865afa158015620001de573d5f803e3d5ffd5b505050506040513d601f19601f820116820180604052508101906200020491906200040b565b6040516001600160e01b031960e085901b1681526001600160a01b039283166004820152911660248201526044016020604051808303815f875af11580156200024f573d5f803e3d5ffd5b505050506040513d601f19601f820116820180604052508101906200027591906200040b565b600b80546001600160a01b0319166001600160a01b0392831617905582165f90815260036020526040808220805460ff1990811660019081179092553084529190922080549091169091179055600454620002d290839062000329565b5050620006f3565b5f80546001600160a01b038381166001600160a01b0319831681178455604051919092169283917f8be0079c531659141344cd1fd0a4f28419497f9722a3daafe3b4186f6b6457e09190a35050565b6001600160a01b038216620003815760405162461bcd60e51b815260206004820152601f60248201527f45524332303a206d696e7420746f20746865207a65726f20616464726573730060448201526064016200007a565b8060045f828254620003949190620006dd565b90915550506001600160a01b0382165f9081526001602052604081208054839290620003c2908490620006dd565b90915550506040518181526001600160a01b038316905f907fddf252ad1be2c89b69c2b068fc378daa952ba7f163c4a11628f55a4df523b3ef9060200160405180910390a35050565b5f602082840312156200041c575f80fd5b81516001600160a01b038116811462000433575f80fd5b9392505050565b634e487b7160e01b5f52604160045260245ffd5b600181811c908216806200046357607f821691505b6020821081036200048257634e487b7160e01b5f52602260045260245ffd5b50919050565b601f821115620004d357805f5260205f20601f840160051c81016020851015620004af5750805b601f840160051c820191505b81811015620004d0575f8155600101620004bb565b50505b505050565b81516001600160401b03811115620004f457620004f46200043a565b6200050c816200050584546200044e565b8462000488565b602080601f83116001811462000542575f84156200052a5750858301515b5f19600386901b1c1916600185901b1785556200059c565b5f85815260208120601f198616915b82811015620005725788860151825594840194600190910190840162000551565b50858210156200059057878501515f19600388901b60f8161c191681555b505060018460011b0185555b505050505050565b634e487b7160e01b5f52601160045260245ffd5b600181815b80851115620005f857815f1904821115620005dc57620005dc620005a4565b80851615620005ea57918102915b93841c9390800290620005bd565b509250929050565b5f826200061057506001620006ad565b816200061e57505f620006ad565b8160018114620006375760028114620006425762000662565b6001915050620006ad565b60ff841115620006565762000656620005a4565b50506001821b620006ad565b5060208310610133831016604e8410600b841016171562000687575081810a620006ad565b620006938383620005b8565b805f1904821115620006a957620006a9620005a4565b0290505b92915050565b5f6200043360ff84168362000600565b8082028115828204841417620006ad57620006ad620005a4565b80820180821115620006ad57620006ad620005a4565b61131f80620007015f395ff3fe60806040526004361061017e575f3560e01c80636b3c1aaa116100cd57806395d89b4111610087578063cc1776d311610062578063cc1776d314610428578063dd62ed3e1461043d578063ee1ccba414610481578063f2fde38b146104a0575f80fd5b806395d89b41146103d6578063a9059cbb146103ea578063c21ebd0714610409575f80fd5b80636b3c1aaa1461032b57806370a082311461033f578063715018a614610373578063884e491b146103875780638a8c523c146103a65780638da5cb5b146103ba575f80fd5b806323b872dd11610138578063313ce56711610113578063313ce567146102c45780634ada218b146102df5780634f7041a5146102f85780634fba14e91461030d575f80fd5b806323b872dd1461024957806327c8f835146102685780632f37aa6d146102a5575f80fd5b8063047e40861461018957806306fdde03146101aa578063095ea7b3146101d457806318160ddd146102035780631d111d131461022157806320fea3c714610235575f80fd5b3661018557005b5f80fd5b348015610194575f80fd5b506101a86101a33660046110ed565b6104bf565b005b3480156101b5575f80fd5b506101be6106c6565b6040516101cb919061110d565b60405180910390f35b3480156101df575f80fd5b506101f36101ee366004611159565b610756565b60405190151581526020016101cb565b34801561020e575f80fd5b506004545b6040519081526020016101cb565b34801561022c575f80fd5b506101a861076e565b348015610240575f80fd5b506101a86107f6565b348015610254575f80fd5b506101f3610263366004611181565b61083f565b348015610273575f80fd5b5060095461028d906201000090046001600160a01b031681565b6040516001600160a01b0390911681526020016101cb565b3480156102b0575f80fd5b506101a86102bf3660046111ba565b610860565b3480156102cf575f80fd5b50604051601281526020016101cb565b3480156102ea575f80fd5b506009546101f39060ff1681565b348015610303575f80fd5b5061021360075481565b348015610318575f80fd5b506009546101f390610100900460ff1681565b348015610336575f80fd5b506101a86108af565b34801561034a575f80fd5b506102136103593660046110ed565b6001600160a01b03165f9081526001602052604090205490565b34801561037e575f80fd5b506101a86108f7565b348015610392575f80fd5b506101a86103a13660046110ed565b61090a565b3480156103b1575f80fd5b506101a86109d5565b3480156103c5575f80fd5b505f546001600160a01b031661028d565b3480156103e1575f80fd5b506101be610a1d565b3480156103f5575f80fd5b506101f3610404366004611159565b610a2c565b348015610414575f80fd5b50600a5461028d906001600160a01b031681565b348015610433575f80fd5b5061021360085481565b348015610448575f80fd5b506102136104573660046111da565b6001600160a01b039182165f90815260026020908152604080832093909416825291909152205490565b34801561048c575f80fd5b506101a861049b3660046110ed565b610a38565b3480156104ab575f80fd5b506101a86104ba3660046110ed565b610afb565b6104c7610b35565b306001600160a01b038216036105245760405162461bcd60e51b815260206004820152601c60248201527f43616e6e6f74207769746864726177204d4154415220746f6b656e730000000060448201526064015b60405180910390fd5b6040516370a0823160e01b81523060048201525f906001600160a01b038316906370a0823190602401602060405180830381865afa158015610568573d5f803e3d5ffd5b505050506040513d601f19601f8201168201806040525081019061058c919061120b565b116105d05760405162461bcd60e51b8152602060048201526014602482015273496e73756666696369656e742062616c616e636560601b604482015260640161051b565b806001600160a01b031663a9059cbb6105f05f546001600160a01b031690565b6040516370a0823160e01b81523060048201526001600160a01b038516906370a0823190602401602060405180830381865afa158015610632573d5f803e3d5ffd5b505050506040513d601f19601f82011682018060405250810190610656919061120b565b6040516001600160e01b031960e085901b1681526001600160a01b03909216600483015260248201526044016020604051808303815f875af115801561069e573d5f803e3d5ffd5b505050506040513d601f19601f820116820180604052508101906106c29190611222565b5050565b6060600580546106d590611241565b80601f016020809104026020016040519081016040528092919081815260200182805461070190611241565b801561074c5780601f106107235761010080835404028352916020019161074c565b820191905f5260205f20905b81548152906001019060200180831161072f57829003601f168201915b5050505050905090565b5f6107643384846001610b61565b5060015b92915050565b610776610b35565b5f47116107bc5760405162461bcd60e51b8152602060048201526014602482015273496e73756666696369656e742062616c616e636560601b604482015260640161051b565b5f80546040516001600160a01b03909116914780156108fc02929091818181858888f193505050501580156107f3573d5f803e3d5ffd5b50565b6107fe610b35565b6009805461ff00191690556040515f81527f4b0fd5fcc6a1e942508bec1deccb889b5b008ee7b9157fc054a4f274a2296984906020015b60405180910390a1565b5f61084b843384610c34565b610856848484610ca9565b5060019392505050565b610868610b35565b6007829055600881905560408051838152602081018390527f78844d280b6003bd81c782e05aa6190cf1a27f33cc872765ef8269d5936f1361910160405180910390a15050565b6108b7610b35565b6009805461ff001916610100179055604051600181527f4b0fd5fcc6a1e942508bec1deccb889b5b008ee7b9157fc054a4f274a229698490602001610835565b6108ff610b35565b6109085f611083565b565b610912610b35565b6001600160a01b0381165f9081526003602052604090205460ff16151560011461097e5760405162461bcd60e51b815260206004820152601a60248201527f41646472657373206973206e6f742077686974656c6973746564000000000000604482015260640161051b565b6001600160a01b0381165f81815260036020908152604091829020805460ff1916905590519182527fde8cf212af7ce38b2840785a2768d97ff2dbf3c21b516961cec0061e134c2a1e91015b60405180910390a150565b6109dd610b35565b6009805460ff191660019081179091556040519081527fbeda7dca7bc1b3e80b871f4818129ec73b771581f803d553aeb3484098e5f65a90602001610835565b6060600680546106d590611241565b5f610764338484610ca9565b610a40610b35565b6001600160a01b0381165f9081526003602052604090205460ff1615610aa85760405162461bcd60e51b815260206004820152601e60248201527f4164647265737320697320616c72656164792077686974656c69737465640000604482015260640161051b565b6001600160a01b0381165f81815260036020908152604091829020805460ff1916600117905590519182527f12c94d2725e3b811140fad6a73350adbd38646149c9a9a62ffc1018bec2ec97c91016109ca565b610b03610b35565b6001600160a01b038116610b2c57604051631e4fbdf760e01b81525f600482015260240161051b565b6107f381611083565b5f546001600160a01b031633146109085760405163118cdaa760e01b815233600482015260240161051b565b6001600160a01b038416610b8a5760405163e602df0560e01b81525f600482015260240161051b565b6001600160a01b038316610bb357604051634a1406b160e11b81525f600482015260240161051b565b6001600160a01b038085165f9081526002602090815260408083209387168352929052208290558015610c2e57826001600160a01b0316846001600160a01b03167f8c5be1e5ebec7d5bd14f71427d1e84f3dd0314c0f7b2291e5b200ac8c7c3b92584604051610c2591815260200190565b60405180910390a35b50505050565b6001600160a01b038381165f908152600260209081526040808320938616835292905220545f198114610c2e5781811015610c9b57604051637dc7a0d960e11b81526001600160a01b0384166004820152602481018290526044810183905260640161051b565b610c2e84848484035f610b61565b6001600160a01b038316610d0d5760405162461bcd60e51b815260206004820152602560248201527f45524332303a207472616e736665722066726f6d20746865207a65726f206164604482015264647265737360d81b606482015260840161051b565b6001600160a01b038216610d6f5760405162461bcd60e51b815260206004820152602360248201527f45524332303a207472616e7366657220746f20746865207a65726f206164647260448201526265737360e81b606482015260840161051b565b5f8111610dd05760405162461bcd60e51b815260206004820152602960248201527f5472616e7366657220616d6f756e74206d7573742062652067726561746572206044820152687468616e207a65726f60b81b606482015260840161051b565b6001600160a01b0383165f9081526003602052604081205460ff16158015610e1057506001600160a01b0383165f9081526003602052604090205460ff16155b15610e7d5760095460ff16610e605760405162461bcd60e51b8152602060048201526016602482015275151c98591a5b99c81a5cc81b9bdd08195b98589b195960521b604482015260640161051b565b606460075483610e70919061128d565b610e7a91906112a4565b90505b6001600160a01b0384165f9081526003602052604090205460ff1680610eba57506001600160a01b0383165f9081526003602052604090205460ff165b15610ec257505f5b600b546001600160a01b038581169116148015610ee857506001600160a01b0383163014155b8015610f0c57506001600160a01b0384165f9081526003602052604090205460ff16155b8015610f3057506001600160a01b0383165f9081526003602052604090205460ff16155b15610f5257606460085483610f45919061128d565b610f4f91906112a4565b90505b6001600160a01b0384165f9081526001602052604081208054849290610f799084906112c3565b90915550610f89905081836112c3565b6001600160a01b0384165f9081526001602052604081208054909190610fb09084906112d6565b90915550506001600160a01b038084169085167fddf252ad1be2c89b69c2b068fc378daa952ba7f163c4a11628f55a4df523b3ef610fee84866112c3565b60405190815260200160405180910390a38015610c2e576009546201000090046001600160a01b03165f90815260016020526040812080548392906110349084906112d6565b90915550506009546040516001600160a01b03620100009092048216918616907fddf252ad1be2c89b69c2b068fc378daa952ba7f163c4a11628f55a4df523b3ef90610c259085815260200190565b5f80546001600160a01b038381166001600160a01b0319831681178455604051919092169283917f8be0079c531659141344cd1fd0a4f28419497f9722a3daafe3b4186f6b6457e09190a35050565b80356001600160a01b03811681146110e8575f80fd5b919050565b5f602082840312156110fd575f80fd5b611106826110d2565b9392505050565b5f602080835283518060208501525f5b818110156111395785810183015185820160400152820161111d565b505f604082860101526040601f19601f8301168501019250505092915050565b5f806040838503121561116a575f80fd5b611173836110d2565b946020939093013593505050565b5f805f60608486031215611193575f80fd5b61119c846110d2565b92506111aa602085016110d2565b9150604084013590509250925092565b5f80604083850312156111cb575f80fd5b50508035926020909101359150565b5f80604083850312156111eb575f80fd5b6111f4836110d2565b9150611202602084016110d2565b90509250929050565b5f6020828403121561121b575f80fd5b5051919050565b5f60208284031215611232575f80fd5b81518015158114611106575f80fd5b600181811c9082168061125557607f821691505b60208210810361127357634e487b7160e01b5f52602260045260245ffd5b50919050565b634e487b7160e01b5f52601160045260245ffd5b808202811582820484141761076857610768611279565b5f826112be57634e487b7160e01b5f52601260045260245ffd5b500490565b8181038181111561076857610768611279565b808201808211156107685761076861127956fea2646970667358221220a7268995fa333a8cbff411e70a0dc6e10e4e74e2a2b24f79e04d1aefa2162dfe64736f6c63430008160033",
    "sourcePath": "e:/GitHub/token-matar/contracts/MATAR.sol",
    "compiler": {
        "name": "solc",
        "version": "0.8.22+commit.4fc1097e"
    },
    "functionHashes": {
        "allowance(address,address)": "dd62ed3e",
        "approve(address,uint256)": "095ea7b3",
        "balanceOf(address)": "70a08231",
        "buyTax()": "4f7041a5",
        "deadAddress()": "27c8f835",
        "decimals()": "313ce567",
        "disableFeeBurn()": "20fea3c7",
        "enableFeeBurn()": "6b3c1aaa",
        "enableTrading()": "8a8c523c",
        "feeBurnEnabled()": "4fba14e9",
        "name()": "06fdde03",
        "owner()": "8da5cb5b",
        "pancakeRouter()": "c21ebd07",
        "removeWalletFromWhiteList(address)": "884e491b",
        "renounceOwnership()": "715018a6",
        "sellTax()": "cc1776d3",
        "symbol()": "95d89b41",
        "totalSupply()": "18160ddd",
        "tradingEnabled()": "4ada218b",
        "transfer(address,uint256)": "a9059cbb",
        "transferFrom(address,address,uint256)": "23b872dd",
        "transferOwnership(address)": "f2fde38b",
        "updateTax(uint256,uint256)": "2f37aa6d",
        "whiteListWallet(address)": "ee1ccba4",
        "withdrawBEP20(address)": "047e4086",
        "withdrawBNB()": "1d111d13"
    },
    "gasEstimates": {
        "creation": {
            "codeDepositCost": "979000",
            "executionCost": "infinite",
            "totalCost": "infinite"
        },
        "external": {
            "allowance(address,address)": "infinite",
            "approve(address,uint256)": "24734",
            "balanceOf(address)": "2579",
            "buyTax()": "2383",
            "deadAddress()": "2415",
            "decimals()": "221",
            "disableFeeBurn()": "27715",
            "enableFeeBurn()": "27622",
            "enableTrading()": "27719",
            "feeBurnEnabled()": "2431",
            "name()": "infinite",
            "owner()": "2462",
            "pancakeRouter()": "2425",
            "removeWalletFromWhiteList(address)": "30146",
            "renounceOwnership()": "infinite",
            "sellTax()": "2338",
            "symbol()": "infinite",
            "totalSupply()": "2370",
            "tradingEnabled()": "2376",
            "transfer(address,uint256)": "infinite",
            "transferFrom(address,address,uint256)": "infinite",
            "transferOwnership(address)": "28439",
            "updateTax(uint256,uint256)": "48051",
            "whiteListWallet(address)": "30153",
            "withdrawBEP20(address)": "infinite",
            "withdrawBNB()": "infinite"
        },
        "internal": {
            "_approve(address,address,uint256,bool)": "infinite",
            "_burn(address,uint256)": "infinite",
            "_burnFrom(address,uint256)": "infinite",
            "_mint(address,uint256)": "infinite",
            "_spendAllowance(address,address,uint256)": "infinite",
            "_transfer(address,address,uint256)": "infinite"
        }
    }
}